S014000046696E616C50726F6A6563742E737265634F
S113000045C0000060C000005EC000005CC000008D
S11300105AC0000058C0000056C0000054C0000080
S113002052C0000050C000004EC000004CC0000090
S11300304AC00000EBC0000046C0000044C00000FD
S113004042C0000040C000003EC000003CC00000B0
S11300503AC0000038C0000036C0000034C00000C0
S113006032C0000030C000002EC000002CC00000D0
S11300702AC0000028C0000026C0000024C00000E0
S113008022C0000020C000001EC0000011241FBEBA
S1130090CFEFD0E4DEBFCDBF11E0A0E0B1E0E4EFEC
S11300A0F9E000E00BBF02C007900D92A633B10740
S11300B0D9F721E0A6E3B1E001C01D92A537B2074C
S11300C0E1F7EDD295C49CCF181619065CF008959B
S11300D0000021503109E1F74F5F5F4F8417950706
S11300E019F4089540E050E027E033E0F1CF289878
S11300F088B9299A0000299882E090E0E5CF089514
S113010081E0F5CF089584E690E0DEDF88E3EFDF59
S113011086E0EDDF8FE0EBDF81E0E9DF8AE090E06D
S1130120D3CF0895289A88B9299A0000299881E0A4
S113013090E0CACF0895813118F48158D8CF08953A
S11301408155D5CF08950F931F93CF93DF93182F25
S1130150EB01D6DF8881882351F001E0010F812F64
S1130160EADF8991DFDF102F88818111F6CFDF91DB
S1130170CF911F910F9108951F93CF93DF93FB01AC
S11301809081992351F0EB0111E0180FD4DF89918C
S1130190C9DF812F98819111F7CFDF91CF911F9102
S11301A0089560931001709311018093120190934C
S11301B0130160933D0170933E0180933F0190933E
S11301C0400108958BE0809381008DE790E0909347
S11301D089008093880082E080936F0010928500EC
S11301E0109284008091100190911101A09112014C
S11301F0B091130180933D0190933E01A0933F0180
S1130200B09340018FB780688FBF08951F920F92FB
S11302100FB60F9211248F939F93AF93BF93809146
S11302203D0190913E01A0913F01B09140010197A1
S1130230A109B10980933D0190933E01A0933F0130
S1130240B0934001892B8A2B8B2B99F481E0809306
S113025041018091100190911101A0911201B0917E
S1130260130180933D0190933E01A0933F01B0930D
S11302704001BF91AF919F918F910F900FBE0F904E
S11302801F901895813081F0E1ECF0E08081886165
S11302908083E2ECF0E080818660808383E3809356
S11302A0C4001092C5000895E9ECF0E080818861F3
S11302B08083EAECF0E080818660808383E380932E
S11302C0CC001092CD000895613041F0E0ECF0E0F4
S11302D0908195FFFDCF8093C6000895E8ECF0E08F
S11302E0908195FFFDCF8093CE000895EAE7F0E07A
S11302F08081806C8083089580917401882319F033
S1130300813079F004C081E0809374010AC08823AD
S113031021F0813009F07DC004C081E080930501A3
S11303200895E0910501F0E0EE5AFE4F10828091AD
S1130330360180937C00EAE7F0E08081806480836A
S1130340808186FDFDCF8091780090917900909313
S11303504701809346018091060180937C00EAE77F
S1130360F0E0808180648083808186FDFDCF809170
S11303707800909179009093490180934801883CDA
S1130380910550F4809105019FEE980F9C3070F414
S11303908051809305010AC0853F914038F08091D7
S11303A00501813118F4805F809305018091460135
S11303B090914701883C910550F480910501982F54
S11303C09F7E913091F08150809305010EC0853F4E
S11303D0914058F080910501803239F093EF980FE5
S11303E0943018F08F5F809305018091050190E0AF
S11303F0FC01EE5AFE4F308120910F01321303C0ED
S113040021E020933C01FC01EE5AFE4F20910E01A5
S11304102083089580914C01882319F0813039F0AC
S113042004C081E080934C0102C0813091F542D236
S113043081709078992324F401978E6F9F6F0196B1
S11304409093450180934401892B51F490916F015D
S113045080910F019817E9F08DE08093730103C038
S113046080E28093730126D264E670E0B5D1909364
S11304704501809344012091040130E02817390795
S113048044F4E0917301F0E0EE5AFE4F80910F01C5
S113049080830895CF9380914D01882319F0813092
S11304A039F004C081E080934D0102C0813021F510
S11304B030910F0160910E0170913C01E2E5F1E091
S11304C082E090E0C1E002C031960196AC01415057
S11304D05109DF01218123130AC011824F7E41306B
S11304E0510591F32081261301C07C2F3C93813266
S11304F0910554F370933C01CF910895EF92FF92CC
S11305000F931F93CF93DF9380914301882319F0B6
S1130510813041F004C081E08093430103C0813005
S113052009F09BC003E511E07801C1E08C2F03DEE4
S1130530F70181917F0190910E01891303C081E03D
S1130540F1DD0AC090910F01891303C082E0EADD56
S113055003C080910D01E6DDCF5FCD3039F70F2E5A
S1130560F3E6EF2EF1E0FF2EF02DC1E18C2FE3DD59
S1130570F70181917F0190910E01891303C081E0FD
S1130580D1DD0AC090910F01891303C082E0CADD56
S113059003C080910D01C6DDCF5FC13239F7809170
S11305A00C01C9DD80913C01882309F456C01092E6
S11305B0740110924C0110924D011092430182E09B
S11305C080930B0110923B0185E080930A01109205
S11305D03A01809309011092390184E6809308015D
S11305E010923801109237018AE08093070181E06C
S11305F0809305014AE06EE471E080914A01909194
S11306004B0166D164E271E081E09DDD6EE271E050
S113061081E1B2DD6EE471E088E1AEDD10923C016F
S1130620CEE4D1E00F2EF2E5EF2EF1E0FF2EF02D17
S113063060E0899149DEEC16FD06D1F788E893E184
S113064043DD10924B0110924A0183E791E0F801D7
S113065011928F01E817F907D1F7DF91CF911F911C
S11306600F91FF90EF9008950F931F93CF93DF9313
S11306708B01883068F4880F880F880F805C37DD21
S1130680E801085F1F4F89914DDDC017D107D9F7E5
S113069080E82DDDDF91CF911F910F910895CF93C5
S11306A0DF93CDB7DEB760970FB6F894DEBF0FBE09
S11306B0CDBF88E0E4E1F1E0DE01119601900D92F6
S11306C08A95E1F788E0ECE1F1E0DE01199601900A
S11306D00D928A95E1F780EF8AB98FE08BB98FEF9D
S11306E084B915B811B882B987B918B80CDDBE0140
S11306F06F5F7F4F81E0B8DFBE01675F7F4F82E0AD
S1130700B3DF80E0BFDDF2DD64E670E080E090E01E
S113071048DD58DD8AE290E0D0D080913B01909191
S11307200B01891304C0E8DD10923B0103C08F5F05
S113073080933B018091390190910901891304C090
S113074069DE1092390103C08F5F80933901809173
S11307503A0190910A01981720F49CDE10923A0114
S113076003C08F5F80933A01809138019091080112
S113077089130AC080910A01823018F08150809355
S11307800A011092380103C08F5F80933801809171
S1130790370190910701891314C080914A01909107
S11307A04B01019690934B0180934A014AE06EE419
S11307B071E08ED06EE471E08DE0DEDC10923701E2
S11307C003C08F5F8093370199DE809141018823B4
S11307D0E1F310924101A1CF97FB072E16F4009488
S11307E006D077FD08D00BD007FC05D03EF49095D9
S11307F081959F4F0895709561957F4F0895AA1B29
S1130800BB1B51E107C0AA1FBB1FA617B70710F0F7
S1130810A61BB70B881F991F5A95A9F78095909529
S1130820BC01CD0108958F929F92AF92BF92CF9257
S1130830DF92EF92FF92CF93DF93EC01688179818D
S11308408A819B81611571058105910521F464E21A
S113085079ED8BE597E02DE133EF41E050E06BD08B
S113086049015A019B01AC01A7EAB1E480D06B01B4
S11308707C01ACEEB4EFA501940185D0DC01CB0181
S11308808C0D9D1DAE1DBF1DB7FF03C00197A109AF
S1130890B04888839983AA83BB839F77DF91CF91E4
S11308A0FF90EF90DF90CF90BF90AF909F908F908C
S11308B00895B9CF80E091E0B6CFA0E0B0E0809396
S11308C0000190930101A0930201B09303010895E4
S11308D0BB274A3031F4992322F4BDE290958195E7
S11308E09F4F01C0BB27FB015527AA27880F991FDB
S11308F0AA1FA41710F0A41B83955051B9F7A05D4B
S1130900AA3308F0A95DA193009779F7B111B193C7
S11309101192CB0100C0DC01FC01672F7191772398
S1130920E1F7329704C07C916D9370836291AE17A6
S1130930BF07C8F30895052E97FB16F400940FD053
S113094057FD05D024D007FC02D046F408C05095CA
S11309504095309521953F4F4F4F5F4F08959095A7
S11309608095709561957F4F8F4F9F4F089531D03B
S1130970A59F900DB49F900DA49F800D911D1124EF
S11309800895B7FFF4CFF3DF821B930B0895A1E220
S11309901A2EAA1BBB1BFD010DC0AA1FBB1FEE1FF5
S11309A0FF1FA217B307E407F50720F0A21BB30B40
S11309B0E40BF50B661F771F881F991F1A9469F7BC
S11309C060957095809590959B01AC01BD01CF0118
S11309D00895A29FB001B39FC001A39F700D811D14
S11309E01124911DB29F700D811D1124911D089534
S10709F0F894FFCFA5
S11309F4010000004601010A6405050222200201E7
S1130A04010000000E0E041F04040A00000F18382D
S1130A14180F000047616D65204F766572005363BB
S1090A246F72653A200028
S9030000FC
